:0200000460009A
:100000004643464200000156000000000101020084
:1000100000000000000000000000000000000000E0
:1000200000000000000000000000000000000000D0
:1000300000000000000000000000000000000000C0
:1000400000000000010403000000000000000000A8
:100050000000200000000000000000000000000080
:100060000000000000000000000000000000000090
:100070000000000000000000000000000000000080
:10008000EB04180A063204260000000000000000FD
:10009000050404240000000000000000000000002F
:1000A0000000000000000000000000000000000050
:1000B0000604000000000000000000000000000036
:1000C0000000000000000000000000000000000030
:1000D00020041808000000000000000000000000DC
:1000E0000000000000000000000000000000000010
:1000F0000000000000000000000000000000000000
:1001000000000000000000000000000000000000EF
:100110000204180804200000000000000000000095
:1001200000000000000000000000000000000000CF
:10013000600400000000000000000000000000005B
:1001400000000000000000000000000000000000AF
:10015000000000000000000000000000000000009F
:10016000000000000000000000000000000000008F
:10017000000000000000000000000000000000007F
:10018000000000000000000000000000000000006F
:10019000000000000000000000000000000000005F
:1001A000000000000000000000000000000000004F
:1001B000000000000000000000000000000000003F
:1001C000000100000010000001000000000000001D
:1001D000000000000000000000000000000000001F
:1001E000000000000000000000000000000000000F
:1001F00000000000000000000000000000000000FF
:10020000D4D4D4D4D4D4D4D4D4D4D4D4D4D4D4D4AE
:10100000D10020400020006000000000000000002F
:1010100020100060001000600000000000000000D0
:10102000000000605875000000000000EFBEADDE5B
:10103000124880F3088812481249016000F036F81F
:10104000114812490022814201D004C0FBE7104838
:101050001049114A814202D008CA08C0FAE70F4875
:101060004FF47001026842EA01020260BFF34F8F41
:10107000BFF36F8F00F014F800DE00000040002086
:1010800008ED00E000400020404400206C64002097
:10109000B8420020404400205875006088ED00E010
:1010A00040F29F1CC0F2000C6047D4D4204840F2AC
:1010B0009C41884219D040F24C418842CCBF1D4A25
:1010C0001D4A1E4B5360136823F0800313601C48B5
:1010D0001C49C1BF1C480A0C8264C1F30F01416462
:1010E000016C41F00401016402E0184815490160F7
:1010F0001748184A824205D01749814202D008CACF
:1011000008C0FAE71548164A824205D015498142BF
:1011100002D008CA08C0FAE71348144A824205D030
:101120001349814202D008CA08C0FAE7704700009C
:10113000240400000080034000C00B4020C528D9D3
:1011400000C00A40AAAAFAFF00400E4060004F44C7
:1011500000000000B82200603C4800000040002071
:1011600000200060B842002000002020F46A0060E7
:10117000640A2020D4D4D4D4D4D4D4D4D4D4D4D4D1
:10118000D4D4D4D4D4D4D4D4D4D4D4D4D4D4D4D41F
:10119000D4D4D4D4D4D4D4D4D4D4D4D4D4D4D4D40F
:1011A000D4D4D4D4D4D4D4D4D4D4D4D4D4D4D4D4FF
:1011B000D4D4D4D4D4D4D4D4D4D4D4D4D4D4D4D4EF
:102000000040002031100060C92600001D4800007B
:10201000C9260000C9260000C926000000000000F3
:10202000000000000000000000000000C9260000C1
:10203000C926000000000000C9260000C9260000D3
:1020400001000000C9260000C9260000C9260000C2
:10205000C9260000C9260000C9260000C9260000C4
:10206000C9260000C9260000C9260000C9260000B4
:10207000C9260000C9260000C9260000C9260000A4
:10208000C926000000000000000000000000000061
:10209000C9260000C9260000C9260000C926000084
:1020A000C9260000C9260000C9260000C926000074
:1020B000C9260000C9260000C9260000C926000064
:1020C000C9260000C9260000C9260000C926000054
:1020D000C9260000C9260000C9260000C926000044
:1020E000C9260000C9260000C9260000C926000034
:1020F000C9260000C9260000C9260000C926000024
:10210000C9260000C9260000C9260000C926000013
:1021100000000000C926000000000000C9260000E1
:10212000C9260000C9260000C9260000C9260000F3
:10213000C9260000C926000000000000C9260000D2
:10214000C9260000C9260000C9260000C9260000D3
:10215000C9260000C92600000000000000000000A1
:10216000C9260000C9260000C9260000C9260000B3
:10217000C9260000C9260000C9260000C9260000A3
:10218000C9260000C9260000C9260000C926000093
:10219000C9260000C9260000C9260000C926000083
:1021A000C9260000C9260000C9260000C926000073
:1021B000C9260000C9260000C9260000C926000063
:1021C000C9260000C9260000C92600000000000042
:1021D000C9260000C9260000C9260000C926000043
:1021E000C9260000C9260000C9260000C926000033
:1021F000C9260000C9260000C9260000C926000023
:10220000C9260000C9260000C9260000C926000012
:10221000C9260000C9260000C9260000C926000002
:10222000C9260000C9260000C9260000C9260000F2
:10223000C9260000C9260000C926000000000000D1
:1022400000000000C9260000C9260000C9260000C1
:10225000C9260000C9260000C9260000C9260000C2
:10226000C9260000C9260000C9260000C9260000B2
:10227000C9260000C9260000C9260000C9260000A2
:10228000C9260000C9260000C9260000C926000092
:10229000C9260000C9260000C9260000C926000082
:1022A000C9260000C9260000C92600000000000061
:0822B000C9260000C926000048
:1022B800F0B503AF2DE9000F83B003F02BF9814689
:1022C80040F66440C2F2200003F0CBF858B140F663
:1022D8006445C2F22005284603F0CFF8284603F0EB
:1022E800C0F80028F7D140F66440C2F2200003F09D
:1022F800FEF844F2404B40F6642AC2F2000BC2F2E8
:10230800200ADBF80000514600F0010240F6744054
:10231800C2F2200000F0C5FE002852D001F0EFFD07
:1023280000F001008DF8040040F6884001AB8DF8FC
:1023380005104FF00108C2F2200001210022CDF85B
:102348000080002401F0C0FC9DF804609DF8055051
:102358008DF8044056B1A7F1220007F8228C01300D
:1023680007F8215C01F092FE012401E007F8224CF5
:102378008DF8090000208DF8086002AE009040F644
:102388007440C2F220003146022201238DF80B501E
:102398008DF80A4001F032FA9DF8080000281CBFA9
:1023A800701C01F040FE9DF80A0000281CBFF01CBC
:1023B80001F039FE9DF8040018B101A8013001F0C0
:1023C80032FEDBF800004BF68361C2F6A0710130E3
:1023D800CBF8000041434FEAB10040F2F551C0F29A
:1023E8007D1188420CD240F694400122C2F22000AE
:1023F800D0E9000101F01F0102FA01F1C0F88C10C8
:1024080040F66446C2F22006304602F049FFC0F8A2
:1024180000A03046042102F056FF304602F040FF8B
:102428000221C1714FF60061CFF6FF71304602F00C
:1024380074FF3046802102F0AFFF304602F004FFFF
:10244800484603F06BF803B0BDE8000FF0BD80B557
:102458006F4686B003F051F846F269400121C2F296
:102468000000E02201704EF20010CEF2000046F2A9
:102478006C4480F80023C2F20004016044F20000BA
:10248800C2F20000A04203D903F041F8A04202D9E9
:1024980000F014F8FEE701210020019140F2AC01A0
:1024A800C2F220010490009140F2B401039004208C
:1024B8000290C2F22001684603F0C6F8F0B503AFF7
:1024C8002DE9000FADF22C5DDBAC204601F0FDFDDF
:1024D80006A8214600F094F90D9BDDE956A0CDE948
:1024E800023002A8DDE95812DDF858B0539CCDE956
:1024F800041201F093FF80464CF20400C4F20A0073
:102508008946016841F400210160204602F0C2FAC0
:1025180048F220100321C4F21F000125026861F36C
:1025280003020260026842F01002026048F28C5214
:10253800C4F21F021560836961F303038361836931
:1025480043F0100383611562436961F30303436138
:10255800436943F010034361D561036E61F30303DC
:102568000366036E43F010030366436861F30303D5
:102578004360436843F0100343609561836861F3E7
:1025880003038360836843F0100383605560C36D61
:1025980061F30303C365C16D41F01001C1650220F9
:1025A8009060042002F088FA1021C0B200F18E4237
:1025B800E16022614FF6E0736269CFF6F07300269E
:1025C80000F1E0601A4041F6007302F58032626162
:1025D80041F61B72C1F61F73C0F20102C1F21C065C
:1025E800A261E361A660C4F88C100121C4F89000D0
:1025F800D4F8940065F31340C4F89400C4F8982004
:10260800C4F89C30C4F8886006AE304601F018FF64
:102618005846314600F0D0FC0A20CDF860B38DF85A
:1026280066030020ADF86403D8A8ADF8675300F03E
:1026380032FCC00740F0BC809DF8670301280DD12B
:10264800BDF8640300218DF86713242120F01002DF
:10265800D8A800F0E1FAC00740F0C780D8A8222126
:1026680044F2400200F0D8FAC00740F0BE80BAF148
:10267800000F00F0AF8003AA06AD07CACDE9081223
:10268800CDE906A0284602F0E6FE284601214FF0D3
:10269800010A02F0F8FE2846012102F00EFF14207C
:1026A800DBA9DC902846ADF86CA302F097FE28461B
:1026B80002F0F6FD40F66421C2F2200101602846CE
:1026C800042102F000FE284602F0EAFD4FF6006100
:1026D8004FF0020B80F807B0CFF6FF71284602F0E2
:1026E8001CFE284604F1200602F0DAFD06612846A1
:1026F8000021002602F0FCFD284602F0D1FD80F8FA
:1027080006B02846002102F01DFE2846042102F0EA
:102718002EFE2846802102F03FFEA0684FF6FD718C
:10272800CFF6E37108400230A060284602F08CFD25
:10273800A0684FF6FF71C7F6E37140F6644508409C
:10274800C2F2200500F10040A06040F69440A16864
:10275800C2F22000DDE90623C0E9008941F4E01057
:10276800A060DDE90801C5E9020140F67440C2F243
:102778002000DE9149F6C04180F810A08673C0F2AF
:102788008D21067386720672C0E9006640F688409D
:10279800C5E90023C2F220004CF6CC42C0E9006132
:1027A800826002F0ACFE0DF22C5DBDE8000FF0BDBA
:1027B80040F270000691C2F22000009040F26000E2
:1027C800C2F2200040F2300306AAC2F220030F2111
:1027D80002F076FF40F2000040F22002C2F2200030
:1027E800C2F22002072102F013FF40F250000691C6
:1027F800C2F22000009040F24000C2F22000E1E75F
:10280800F0B503AF2DE9000FB1B08B46044601F1D6
:10281800340038310BF1540201F01DFEDBF82801B9
:10282800016841F001010160DBF82811086820F017
:10283800020008600020C1F80801C1F81801C1F8B9
:1028480028011A91C1F83801DBF8C0A0DAF80000B5
:1028580020F00100CAF80000DAF8000040F4004057
:10286800CAF80000DAF8000000040CD5DAF8000015
:10287800000444BFDAF800005FEA004003D5DAF844
:1028880000000004EED43F20CAF80800DAF800007F
:1028980020F00100CAF80000DBF8C460306820F0BE
:1028A80001003060306840F4004030603068000457
:1028B80009D53068000444BF30685FEA004002D59B
:1028C80030680004F2D43F2040F26341B0603068C1
:1028D80020F001003060DBF80050DBF85C01199053
:1028E800A86C40F00100A864686C08436864686CD0
:1028F800012161F383006864686C20F080006864DB
:10290800A86C40F02000A864686C40F440406864FB
:10291800686C40F444706864A86C40F08000A86457
:10292800A86D000709D0A86D00071CBFA86D5FEA55
:10293800007002D0A86D0007F2D1A86C40F2634184
:1029480040F02000A864686C20F440406864686C1B
:1029580020F4447000F588706864DBF80480D8F8C7
:10296800480040F00100C8F84800D8F8440008437F
:10297800C8F84400D8F84400012161F38300C8F87E
:102988004400D8F8440020F08000C8F84400D8F883
:10299800480040F02000C8F84800D8F8440040F447
:1029A8004040C8F84400D8F8440040F44470C8F8DF
:1029B8004400D8F8480040F08000C8F84800D8F82B
:1029C800580000070CD0D8F8580000071CBFD8F8EA
:1029D80058005FEA007003D0D8F858000007EED11D
:1029E800D8F8480002220F2340F02000C8F8480019
:1029F800D8F8440020F44040C8F84400D8F844000F
:102A080020F4447000F58870C8F84400DBF87C11A5
:102A18001BA801F0B4FFDBF868112DA84FF4805211
:102A280002F0E9FADBF89C001590DBF8A40014909A
:102A3800DBF8A8000A90DBF8AC000890DBF884010A
:102A48000590DBF890010490DBF89801DBE9171298
:102A5800039004F5A07001F0E2FFDBE90D010F22FD
:102A6800DBF83091CDE9171009F16003DBF8540069
:102A78001690DBF880000B90DBF8E0001390DBF891
:102A8800E8001290DBF8F0001190DBF8F4001090E9
:102A9800DBF8F8000F90DBF8FC000E90DBF8000183
:102AA8000690DBF804010990DBF808010790DBF8D1
:102AB8000C010D90DBF810010290DBF814010C906A
:102AC800DBE946E0DBE921C1019009F59070C4F823
:102AD800880009F1C000C4F884004FF47040A9F8D8
:102AE8008C01C4E91E99A9F88E214FF00F09C4F88A
:102AF8008030DBF8343103F59072C4F89C2003F180
:102B0800C002C4F89820A3F88C0103F16002C4E95C
:102B18002333A3F88E91C4F89420DBF8382102F50A
:102B28009073C4F8B03002F1C003C4F8AC30A2F816
:102B38008C01C4E92822A2F88E916032C4F8A8203A
:102B4800DBF83C2102F59073C4F8C43002F1C003ED
:102B5800C4F8C030A2F88C0102F16000C4F8BC00CF
:102B6800C4E92D22A2F88E91199AC4E904A60BF59E
:102B7800A67A02F134005032C4E933C11BA9C4E972
:102B8800D0204822039820630498E0620598A06248
:102B9800089860620A9820621A989AE84006C4E980
:102BA8000000C4E902001598A0611498E0610B9830
:102BB800C4F8C800029820670698E0660198A066E5
:102BC80007986066099820661398206412986064D4
:102BD8001198A0641098E0640F9820650E986065BD
:102BE8000C98A0650D98E0651698E0631798A063A7
:102BF8001898606304F1DC00C4E93558C4F874E03F
:102C080003F047FD2DAB04F5927C0FCB8CE84F0603
:102C180031B0BDE8000FF0BD8BB2242B08BF828015
:102C2800F0B503AF4DF8048D0468636903F040768E
:102C3800B6F1007F0BD147F60370C0F2003000F107
:102C48007F4003EA000101205DF8048BF0BD807924
:102C580002F47F45236943F4407323614FF4FE4334
:102C680040006361636913F4705F40F0FB80DB0729
:102C780014D1636913F4705F40F0F480DB070DD161
:102C8800636913F4705F40F0ED80DB0706D1636978
:102C980013F4705F40F0E680DB07E3D000020E46D5
:102CA800904601F047FF2066606910F4705F40F0BD
:102CB800E380C00714D1606910F4705F40F0DC80D5
:102CC800C0070DD1606910F4705F40F0D580C0076F
:102CD80006D1606910F4705F40F0CE80C007E3D081
:102CE800022001F027FF2066606910F4705F40F051
:102CF800C380C00714D1606910F4705F40F0BC80D5
:102D0800C0070DD1606910F4705F40F0B580C0074E
:102D180006D1606910F4705F40F0AE80C007E3D060
:102D28003002023001F006FF2066606910F4705F1F
:102D380040F0A280C00714D1606910F4705F40F0C1
:102D48009B80C0070DD1606910F4705F40F09480DB
:102D5800C00706D1606910F4705F40F08D80C0072D
:102D6800E3D045F0020001F0E5FE2066606910F44A
:102D7800705F40F08180C00711D1606910F4705F06
:102D88007AD1C0070BD1606910F4705F74D1C007A5
:102D980005D1606910F4705F6ED1C007E6D04FEAC4
:102DA8000820023001F0C6FE47F603752066C0F21F
:102DB8000035606910F4705F67D1C00711D1606990
:102DC80010F4705F61D1C0070BD1606910F4705FB7
:102DD8005BD1C00705D1606910F4705F55D1C00799
:102DE800E7D0042001F0A6FE2066606910F4705F49
:102DF8004BD1C00511D4606910F4705F45D1C0058E
:102E08000BD4606910F4705F3FD1C00505D46069C8
:102E180010F4705F39D1C005E7D543F60040C0F221
:102E28000010626902EA0001B1F1807F11D1626984
:102E380002EA0001B1F1807F02BF626902EA000183
:102E4800B1F1807F05D1626902EA0001B1F1807FAA
:102E5800E7D012F4705002EA050118BF01205DF8AE
:102E6800048BF0BD47F60370C0F2003003EA00019E
:102E780001205DF8048BF0BD47F60371C0F2003104
:102E8800014001205DF8048BF0BD00EA0501012036
:102E98005DF8048BF0BDD0B502AF04464CF2C060BB
:102EA800C0F22D0002F02DFB01203021E0712046F8
:102EB80044F26002FFF7B0FEC0076FD1204626211A
:102EC8006C22FFF7A9FEC00768D1204628214FF4DD
:102ED800F972FFF7A1FEC00760D120462C2140F609
:102EE8002272FFF799FEC00758D120463C2144F2D0
:102EF8004642FFF791FEC00750D12046242140F2F8
:102F08003712FFF789FEC00748D12046302144F226
:102F1800FF02FFF781FEC00740D12046022173223D
:102F2800FFF77AFEC00739D141F60040C0F64E607F
:102F380002F0E7FA20462E2141F61D52FFF76CFEFB
:102F4800C0072BD1204604210422FFF765FEC007E5
:102F580024D1204606213022FFF75EFEC0071DD18E
:102F680020460A211022FFF757FEC00716D1204637
:102F78000E210022FFF750FEC0070FD12046102176
:102F880043F63C42FFF748FEC00707D120462221FE
:102F980047F67F72FFF740FEC00701D00120D0BD81
:102FA800204624213622FFF737FEC0074FF00100E4
:102FB80001D120720020D0BDD0B502AF48F2FC0389
:102FC8004FF0030CC4F21F034FF0010E1A686CF3A4
:102FD80003021A601A6842F010021A60D3F8F0214E
:102FE80042F40062C3F8F021C3F8D0E35A686CF3E6
:102FF80003025A605A6842F010025A60D3F8F4216A
:1030080042F40062C3F8F4210222C3F8D4E3026157
:103018000269920732D44A7A8B7A0C7A02F03F021C
:1030280091F80BC003F03F0364F30D2242EA034218
:103038000CF03F0342EA03628264426AD1E9003439
:1030480022F0070291F80DC0097B1A4442624FF042
:1030580070624FF200036FF31F3402EA0161826A63
:10306800CFF2F0036CF313411A40114421448162FA
:103078004FF001118165C0F810E0D0BD0023036155
:1030880002699207C7D503610269920742BF0361CB
:1030980002695FEA8272BED5036102699207EED4C3
:1030A800B9E7F0B503AF2DE9000F89B0D0E90054B6
:1030B800002A037B90F810E090F80880069208BF79
:1030C80001F58071B8F1010FCDE9048ECDE907450E
:1030D80040F0B580002B00F0DD81437A202B80F092
:1030E800758305F1400615F1410F00F22F83802EFC
:1030F80000F24483467B202E80F0788304F1400C54
:1031080014F1410F00F25283BCF1800F00F2568394
:1031180044F244426FF03F0BC2F2000202EB032379
:1031280003EB450C330203EB440300241A4402F179
:10313800100E0EEB04033CF8042001EB0B0833F8E7
:10314800106C0CEB040901EB440A0BF1400BB9F8C5
:10315800105042EA0642C8F8402033F80E2CB9F85D
:10316800026046EA0242CAF8042033F80C2CB9F887
:10317800046046EA0242CAF8082033F80A2CB9F873
:10318800066046EA0242CAF80C2033F8082CB9F85F
:10319800086046EA0242CAF8102033F8062CB9F84B
:1031A8000A6046EA0242CAF8142033F8042CB9F837
:1031B8000C6046EA0242CAF8182033F8022CB9F823
:1031C8000E6046EA02423EF804602034802C45EA4C
:1031D80006455E88C8E91725B9F812209D8842EA95
:1031E8000642CAF82420B9F8142042EA0542DD88CC
:1031F800CAF82820B9F8162042EA0542CAF82C2055
:103208001A89B9F8185045EA0242CAF830205A8992
:10321800B9F81A5045EA0242CAF834209A89B9F82E
:103228001C5045EA0242CAF83820DA89B9F81E303B
:1032380043EA0242C8F87C207FF47BAFFAE1002B16
:1032480000F00382437B202B80F0C08204F140060B
:1032580014F1410F00F28282802E00F2978244F22C
:103268004446C2F2000606EB032333F8146003EB6E
:103278004403DA895C88B3F8108036041204B3F882
:103288000690B3F80AC04FEA044A9D889C894FEA21
:103298000949CA614FEA0842B3F808E02D040392CD
:1032A8004FEA0C4C9A8A2404C1E9006A01F1080625
:1032B800B3F812B04FEA0E4E86E820424FEA0249B0
:1032C800C1E905C44FEA0B4E1C8BDA8BB3F81C809E
:1032D800B3F81AC024045E8C1204DDF80CA04FEA7F
:1032E8000848DD8A02964FEA0C46C1E908AE01F1AA
:1032F800300E8EE850012D04CA63029ADC8CB3F8B4
:1033080020C0C1E90A954FEA02481A8D4FEA0449DC
:103318005D8D4FEA0C4C9E8DDC8D1204B3F824B001
:103328002D04C1E910C83604240401F1500C8CE8BE
:1033380064004FEA0B4ECC651A8E9D8E5E8EDC8E35
:103348004FEA024CC1E912E94FEA05484FEA064E36
:103358001A8F4FEA04495E8F9D8FDC8F1204360462
:10336800C1E918CE2D04C1E91C262404B3F8402075
:10337800C1E91E54B3F84260B3F844504FEA024C16
:10338800B3F84640C1E91A894FEA064EB3F8482017
:103398004FEA05484FEA0449B3F84A60B3F84C507D
:1033A800B3F84E4012043604C1E920CE2D04C1E919
:1033B80024262404B3F85020C1E92654B3F85260F7
:1033C800B3F854504FEA024CB3F85640C1E9228989
:1033D8004FEA064EB3F858204FEA05484FEA044929
:1033E800B3F85A60B3F85C50B3F85E401204360480
:1033F800C1E928CE2D04C1E92C262404B3F86020A5
:10340800C1E92E54B3F86260B3F864504FEA024C35
:10341800B3F86640C1E92A894FEA064EB3F8682036
:103428004FEA05484FEA0449B3F86A60B3F86C50AC
:10343800B3F86E4012043604C1E930CE2D04C1E958
:1034480034262404B3F87020C1E93654B3F8726006
:10345800B3F874504FEA024CB3F876404FEA064E80
:10346800B3F87820B3F87A60C1E932894FEA0548A1
:10347800B3F87C502404B3F87E3012043604C1E952
:1034880038CE2D04C1E93A841B04C1E93C26C1F8B1
:10349800F850CDE0437A202B80F0988105F1400662
:1034A80015F1410F00F26281802E00F2778144F21B
:1034B8004442C2F2000202EB032202EB450332F857
:1034C80015A0B3F80AC05A88DD89B3F808801E8AA7
:1034D8000396C1E9048C9C895E8AB3F81480C1E91B
:1034E80000A2C1E9064502961A8CB3F806901D8B16
:1034F8000192029A5C8BC1E9092801F13402B3F800
:1035080004E001F14008DE8AB3F81CC0C1E902E911
:10351800C1E90B65B3F81EE082E810505D8DB3F881
:103528002EC0019A1E8D9C8DB3F826E0C1E9146562
:10353800C1E9164CB3F82290B3F824A088E80446F1
:103548005E8EDC8EB3F83AE01A8E9D8EB3F838C0E2
:10355800B3F83E90C1E91826C1E91A54C1E91CCE56
:10356800B3F84260B3F84640B3F84AE0B3F83C8099
:10357800C1E91E89B3F84020B3F84450B3F848C0F5
:10358800B3F84E90C1E92026C1E92254C1E924CEFE
:10359800B3F85260B3F85640B3F85AE0B3F84C8029
:1035A800C1E92689B3F85020B3F85450B3F858C08D
:1035B800B3F85E90C1E92826C1E92A54C1E92CCEA6
:1035C800B3F86260B3F86640B3F86AE0B3F85C80B9
:1035D800C1E92E89B3F86020B3F86450B3F868C025
:1035E800B3F86E90C1E93026C1E93254C1E934CE4E
:1035F800B3F87260B3F87640B3F87AE0B3F86C8049
:10360800DDF80CB0C1E93689B3F87020B3F874500E
:10361800B3F878C0B3F87C80C1F820B0B3F87E3036
:10362800C1E93826C1E93A54C1E93CCEC1F8F8806D
:10363800C1F8FC3008994031802911D201600799FE
:103648004031802945D2416077E0044608464FF46E
:10365800807102F0C7FF2046089940318029EDD3D8
:10366800002190F80AE0C67A01608172049949B392
:10367800417A1F2900F2B28044F2444CBFF35F8FB5
:10368800C2F2000C0CEB010202F50054D4E84F5FC3
:103698006A1EC4E8432F002BF8D1012DBFF35F8FBA
:1036A80010D10122BFF35F8F02FA01F142F220022A
:1036B8000CEB0205C94355E8002F0A4045E80023F2
:1036C800002BF8D1467280F808E00799403180292C
:1036D800B9D3017B002290F80EE0C67B426082736A
:1036E80041B3417B1F2979D844F2444CBFF35F8F23
:1036F800C2F2000C0CEB010202F50054D4E84F5F53
:103708006A1EC4E8432F002BF8D1012DBFF35F8F49
:1037180010D10122BFF35F8F02FA01F142F22002B9
:103728000CEB0205C94355E8002F0A4045E8002381
:10373800002BF8D1467380F80CE0DDE9051080F025
:103748000100084009B0BDE8000FF0BD40F2581272
:10375800C2F220022846314602F027FA40F2381217
:103768002046C2F22002314602F01FFA40F2481207
:10377800C2F220022846314602F017FA40F25812E7
:10378800C2F220023046802102F00BFA40F23812D1
:10379800C2F220023046802102F003FA40F24812B9
:1037A800C2F220023046802102F0FBF940F2681292
:1037B8002046C2F22002614602F0F7F940F2681290
:1037C8006046C2F22002802102F0EBF940F20412B6
:1037D8001846C2F22002202101F054FF40F2F40200
:1037E8000846C2F22002202101F04CFF40F20412E8
:1037F8003046C2F22002202101F044FFF0B503AFA9
:103808004DF8048D002A00F02F820B78002B00F071
:10381800CE80037A002B00F08180857A002D00F09D
:10382800908190F80BC0002686725BB390F80980EF
:10383800B8F11F0F00F2408244F2444EBFF35F8F8D
:10384800C2F2000E0EEB080404F50054D4E84F5FF2
:103858006E1EC4E8436F002BF8D1012DBFF35F8FB4
:1038680010D1012342F2200403FA08F30EEB0405F9
:10387800DB43BFF35F8F55E8006F1E4045E80064E7
:10388800002CF8D191F80180012680F809C0B8F120
:10389800200F067280F0F08144F2444EBFF35F8F30
:1038A800C2F2000E0EEB080606F50054D4E84F6F7E
:1038B8000136C4E8456F002DF8D1BFF35F8F867AD3
:1038C8003EB390F80BC0BCF11F0F00F2ED810EEB78
:1038D8000C04BFF35F8F04F50054D4E84F5F6E1EED
:1038E800C4E8436F002BF8D1012DBFF35F8F10D1CF
:1038F8000123BFF35F8F03FA0CF3DC4342F220038A
:103908000EEB030555E8003F234045E80036002E3E
:10391800F8D1012380F80B80837246E091F801808A
:10392800B8F1200F80F0A88144F2444EBFF35F8FB6
:10393800C2F2000E0EEB080303F50053D3E84F5F05
:103948000135C3E8445F002CF8D1BFF35F8F037AD9
:103958003BB390F809C0BCF11F0F00F2A5810EEB34
:103968000C03BFF35F8F03F50053D3E84F5F6C1E62
:10397800C3E8464F002EF8D1012DBFF35F8F10D159
:10398800012342F2200603FA0CF30EEB0605DB4393
:10399800BFF35F8F55E8006F1E4045E80064002CB8
:1039A800F8D1012380F80980037200230360012AFB
:1039B80000F011818A78002A00F05381037B002BE4
:1039C8007AD0827B002A00F00E8190F80FE0002662
:1039D800867343B3437B1F2B00F25E8144F2444C51
:1039E800BFF35F8FC2F2000C0CEB030606F5005420
:1039F800D4E84F5F6E1EC4E8426F002AF8D1012D4B
:103A0800BFF35F8F0FD10122BFF35F8F9A40D3437B
:103A180042F220020CEB020555E8002F1A4045E857
:103A28000026002EF8D1C978012280F80DE020295F
:103A3800027380F0298144F2444CBFF35F8FC2F2D5
:103A4800000C0CEB010303F50053D3E84F6F01366C
:103A5800C3E8456F002DF8D1BFF35F8F837B1BB39D
:103A6800C37B1F2B00F218810CEB0306BFF35F8F9B
:103A780006F50054D4E84F5F6E1EC4E8426F002A72
:103A8800F8D1012DBFF35F8F0ED10122BFF35F8FF5
:103A98009A40D34342F22002624452E8006F1E402B
:103AA80042E80065002DF8D1C1730121817300211E
:103AB80041605DF8048BF0BDC978202980F0E4806E
:103AC80044F2444CBFF35F8FC2F2000C0CEB0103CD
:103AD80003F50053D3E84F6F0136C3E8456F002D57
:103AE800F8D1BFF35F8F037B1BB3437B1F2B00F21F
:103AF800D3800CEB0306BFF35F8F06F50054D4E8C0
:103B08004F5F6E1EC4E8426F002AF8D1012DBFF343
:103B18005F8F0ED10122BFF35F8F9A40D34342F2E9
:103B28002002624452E8006F1E4042E80065002D02
:103B3800F8D1417301210173002141605DF8048BC4
:103B4800F0BD91F80180B8F1200F80F0958044F223
:103B5800444EBFF35F8FC2F2000E0EEB080606F567
:103B68000054D4E84F6F0136C4E8456F002DF8D1F2
:103B7800BFF35F8F867A3EB390F80BC0BCF11F0F7E
:103B880000F292800EEB0C04BFF35F8F04F5005433
:103B9800D4E84F5F6E1EC4E8436F002BF8D1012DA7
:103BA800BFF35F8F10D10123BFF35F8F03FA0CF3CC
:103BB800DC4342F220030EEB030555E8003F2340A7
:103BC80045E80036002EF8D1012380F80B80837277
:103BD800012A7FF4EFAE40F288120120C2F22002DF
:103BE800012101F04FFDC97820294DD244F2444CFF
:103BF800BFF35F8FC2F2000C0CEB010303F5005317
:103C0800D3E84F6F0136C3E8456F002DF8D1BFF3F5
:103C18005F8F837B13B3C37B1F2B3DD80CEB03064D
:103C2800BFF35F8F06F50054D4E84F5F6E1EC4E8FB
:103C3800426F002AF8D1012DBFF35F8F0ED1012208
:103C4800BFF35F8F9A40D34342F22002624452E8A6
:103C5800006F1E4042E80065002DF8D1C1730121B4
:103C680081735DF8048BF0BD40F278120020C2F237
:103C78002002002101F006FD40F2E402C2F2200217
:103C88004046202101F0FEFC40F2E4020846C2F260
:103C98002002202101F0F6FC40F2F4021846C2F29C
:103CA8002002202101F0EEFC40F2F4026046C2F24C
:103CB8002002202101F0E6FC40F2F402C2F22002C8
:103CC8004046202101F0DEFCF0B503AF2DE9000FDE
:103CD80089B0D0F80890B9F1000F00F0F780B96802
:103CE800002900F0FC801A7800215E78002A1970FB
:103CF80000F0EC801F2E019300F2F98044F2444159
:103D08000090C2F20001D0E900C801EB062008903B
:103D18004FEA880040F29815079008EB8800069053
:103D2800C8EBC80005904FEA4800049008EB48002B
:103D380003906FF0FF0A4000C2F22005029002993A
:103D48004FEA1C6035F9103005EB400001EB0C041C
:103D5800B0F90200C4F30F22240E05EB44060699BD
:103D680035F91440B6F9026001EB0C0B02FB06FEB4
:103D7800CCF30F26CBF30F217043C6F58036C2F57E
:103D8800803206FB03004FEA1B6305EB430635F957
:103D9800133002FB04E2B6F9026050FB09F04E430F
:103DA800C1F5803152FB09F201FB0361089B5344C2
:103DB8001AF1100AA3F80001059851FB09F1A3F8BC
:103DC8000C2160444FEA1066C0F30F2005EB46044F
:103DD80035F91660A3F80A11B4F9024000FB04F49F
:103DE800C0F5803000FB064050FB09F0A3F80E0137
:103DF8000CEB08004FEA1061C0F30F2605EB4102F7
:103E080035F911104044B2F902204044404440447E
:103E180006FB02F2C6F580364044404406FB012109
:103E280051FB09FE049961444FEA1162C1F30F2165
:103E380005EB420435F91220A3F802E1B4F9024077
:103E480001FB04F4C1F5803101FB024151FB09FB80
:103E5800039901EB0C0207994FEA1264C2F30F228F
:103E680005EB440635F91440A3F804B1B6F902602D
:103E780002FB06F6C2F5803202FB046201EB0C0677
:103E880000EB080C4FEA1664C6F30F2605EB440155
:103E980035F91440B1F9021052FB09F206FB01F1A1
:103EA800C6F58036A3F8062106FB041151FB09F17B
:103EB800A3F808117FF443AF019901200870009816
:103EC800C0F800C009B0BDE8000FF0BDD0E900217E
:103ED80002EBC111016009B0BDE8000FF0BD40F26E
:103EE800C0320020C2F22002002101F0CBFB40F2D8
:103EF80004123046C2F22002202101F0C3FBD0B5E3
:103F080002AF44F2444E42F22001C2F2000E4FF0DA
:103F1800010C03E0BFF32F8FBFF35F8F5EF8012022
:103F2800BFF35F8F531C7BD00EEB010353E8004FA8
:103F380094420DD1D443BFF35F8F94FAA4F4B4FA3A
:103F480084F40CFA04F0104343E8000212B954E078
:103F5800BFF32F8FBFF35F8F5EF80120BFF35F8F32
:103F6800501C5DD053E8000F90420DD1D043BFF3F1
:103F78005F8F90FAA0F0B0FA80F40CFA04F01043C6
:103F880043E8000212B938E0BFF32F8FBFF35F8F09
:103F98005EF80120BFF35F8F501C41D053E8000F3B
:103FA80090420DD1D043BFF35F8F90FAA0F0B0FAE2
:103FB80080F40CFA04F0104343E8000212B91CE044
:103FC800BFF32F8FBFF35F8F5EF80120BFF35F8FC2
:103FD800501C25D053E8000F90429BD1D043BFF32B
:103FE8005F8F90FAA0F0B0FA80F40CFA04F0104356
:103FF80043E80002002A7FF48FAF0EEB0400BFF302
:104008005F8F4FF400510122BFF35F8F42540EEBD4
:1040180004204FF4807102F0E5FA01202146D0BD5A
:1040280000202146D0BD80B56F4600781F2826D8CD
:1040380044F2444CBFF35F8FC2F2000C0CEB000259
:1040480002F5005EDEE84F3F591ECEE8421F002A07
:10405800F8D1012BBFF35F8F18BF80BD0121BFF3DB
:104068005F8F01FA00F042F220016144C04351E839
:10407800002F024041E80023002BF8D180BD40F218
:10408800F4022021C2F2200201F0FCFA80B56F464A
:104098000078202812D244F24441BFF35F8FC2F265
:1040A8000001014401F50051D1E84F2F0132C1E868
:1040B800432F002BF8D1BFF35F8F80BD40F2E4029D
:1040C8002021C2F2200201F0DDFAF0B503AF2DE99C
:1040D800000F81B046F268414FF0010CC2F20001B6
:1040E800BFF35F8FD1E84F2FC1E843CF002BF9D141
:1040F800BFF35F8F002A01BF48F20001C4F20D012F
:104108000022C4F22F0201BF02F5542C02F5502EF2
:1041180002F54C28A1F5004401BFA1F5003501F5D1
:10412800F61601F5F413C0E9683601BFC0E96A5410
:10413800C0E96C8EC0E96EC101F5005E01BF01F5F2
:10414800805640F2040CC4F22E0C01F5021401BF93
:104158000CF5FE7501F5004300F5C07888E83800D5
:1041680001BF00F5C67383E81210C0E9666EA1F5B9
:10417800404C01BF01F5881E01F5861801F584142D
:1041880001F5821301BF01F5003602F51025C0E9DB
:10419800585600F5B47501BF85E81A41C0F87CC1CE
:1041A800A1F5804C02F51C2E01BF02F5182802F576
:1041B8001424A1F5E03301F5282601BF01F5EE1519
:1041C800C0E9505600F5A47585E8184101BFC0E95B
:1041D800562C02F5782802F5742902F5702401BFDF
:1041E80002F56C234CF2000CC4F2070C0CF50046E7
:1041F80001BF01F5E03E01F58E15C0E9485EC0E952
:104208004A6101BF00F5987585E81802C0F83C813D
:1042180001F5482801BF01F5442901F5402A01F5B7
:104228003C2B01F5382301BF01F5342401F5302575
:1042380001F52C26C0E9406501BFC0E94243C0E949
:1042480044BAC0E9469802F5302801BF02F52C2986
:1042580002F5282A02F5242B02F5861301BF02F580
:10426800841402F5821502F58016C0E9386501BF8D
:10427800C0E93A43C0E93CBAC0E93E9801F5F018F4
:1042880001BF01F59219A1F5503AA1F5403BA1F5FE
:10429800303301BF01F5901401F58C1501F58A162C
:1042A800C0E9306501BFC0E93243C0E934BAC0E9AA
:1042B800369844F2000B01BFC4F2002B0BF50049FD
:1042C8000BF5804A4FF0844801BF01F56C2601F5D3
:1042D800682401F56425A1F5C03301BFC0E928357C
:1042E80000F1A80383E85009C0E92EA901BF01F530
:1042F800602801F5E61901F5E81AA1F5203601BF95
:104308000BF5E03301F5582401F55425C0E9205494
:1043180001BF00F1880484E84804C0E9259EC0F87C
:104328009C8001BFA1F5103E01F5FE1801F50019AA
:1043380002F5642A01BF02F5602302F55C2602F546
:10434800582501F5A03401BF00F1600B8BE870001F
:10435800C0E91B3AC0E91D9801BFC0F87CE001F52F
:10436800803E02F540480CF5804901BF01F5804ABE
:1043780001F5F21344F20806C4F2090601BF06F17A
:10438800100506F10804C0E91064C0E9125301BF22
:10439800C0E914A9C0E9168E0CF5C03E01F5103825
:1043A80001BF01F5801901F57C2401F5782302F598
:1043B8007C2601BF02F54825C0E9085600F128050A
:1043C80085E8180201BFC0E90D81C0F83CE002F59C
:1043D800442E02F50C2601BF01F5D21501F524245F
:1043E80002F54022A1F5803301BFA1F5A031C0E953
:1043F8000013C0E9022C103001BF80E8704001B002
:10440800BDE8000FF0BD40F2D03040F23442C2F2B5
:104418002000C2F22002352101F021F980B56F4653
:1044280048F248110068C4F21F0105230A6863F3C3
:1044380003020A60416841F008014160032180BD20
:1044480080B56F460A4641F20021C0F27A01BDE804
:10445800804000F097BBF0B503AF2DE9000782B0AC
:10446800894600211646044600F05BFB304640F2C0
:10447800E24100F09BFD484600F0F5FD40F284461D
:104488002146C2F2200600223046D9F8005000F03A
:1044980023FBB01C2146002200F01EFB301D2146E4
:1044A800002200F019FBB01D2146002200F014FB89
:1044B80006F108002146002200F00EFB06F10A0072
:1044C8002146002200F008FB06F10C0021460022DC
:1044D80000F002FB06F10E002146002200F0FCFA73
:1044E80006F110002146002200F0F6FA06F112004B
:1044F8002146002200F0F0FA06F1140021460022BD
:1045080000F0EAFA06F116002146002200F0E4FA6B
:1045180006F118002146002200F0DEFA06F11A0022
:104528002146002200F0D8FA06F11C00214600229C
:1045380000F0D2FA06F11E002146002200F0CCFA63
:1045480020684169890107D5416921F000714161FD
:10455800204600F0D5FA20684169012221F0605117
:1045680041612068816962F30D318161204600F064
:10457800C7FA2068416941F000714161204600F0A6
:10458800BFFA4FF480502860642028604FF4005030
:1045980068602868002809D4286800285CBF286853
:1045A800002803D42868B0F1FF3FF2DC20684FF000
:1045B8000108016968F302010161204600F0A0FAD0
:1045C8002068416921F4E0514161204600F098FAE1
:1045D8002068816941F4402181612068416921F0A6
:1045E80000714161204600F08BFA206840F2E046F5
:1045F800C2F220060022416941F44071416130460F
:10460800214600F069FAB01C2146002200F064FA45
:10461800301D2146002200F05FFAB01D214600221D
:1046280000F05AFA2068022540F2F8460022C2F249
:104638002006816B65F3D84181632068816B41F462
:10464800802181633046214600F046FAB01C21469D
:10465800002200F041FA301D2146002200F03CFA09
:10466800B01D2146002200F037FA206840F2A44627
:104678004FF0030AC2F220060022816965F3051192
:104688008161206881696AF39C61816130462146B5
:1046980000F022FAB01C2146002200F01DFA301D5D
:1046A8002146002200F018FAB01D2146002200F031
:1046B80013FA06F108002146002200F00DFA2068DE
:1046C800172240F2C046C2F22006C16962F3050112
:1046D800C16120680022C16941F04001C1613046D2
:1046E800214600F0F9F9B01C2146002200F0F4F947
:1046F800301D2146002200F0EFF9B01D21460022AE
:1047080000F0EAF906F108002146002200F0E4F979
:1047180006F10A002146002200F0DEF906F10C003D
:104728002146002200F0D8F906F10E0021460022A9
:1047380000F0D2F9206840F62C1242F21073416A58
:1047480041F0400141622068416A65F30501416218
:1047580048461C21CDF8008000F0ABFC40F605105F
:10476800214627F81A0CA7F11A00002200F0B4F924
:1047780020680E22C16965F38B21C161206840F26F
:104788000055C2F22005816A6AF3881181622068A7
:10479800816A62F30501816228462146032200F0FE
:1047A8009BF9A81C2146032200F096F9281D2146F2
:1047B800032200F091F9A81D2146032200F08CF98C
:1047C80005F108002146032200F086F905F10A00E8
:1047D8002146032200F080F905F10C00214603224E
:1047E80000F07AF905F10E002146032200F074F971
:1047F80005F110002146032200F06EF905F11200C0
:104808002146032200F068F905F11400214603222D
:1048180000F062F905F116002146032200F05CF968
:1048280005F118002146032200F056F905F11A0097
:104838002146032200F050F905F11C00214603220D
:1048480000F04AF905F11E002146032200F044F960
:1048580005F120002146032200F03EF905F122006F
:104868002146032200F038F905F1240021460322ED
:1048780000F032F905F126002146032200F02CF958
:1048880005F128002146032200F026F905F12A0047
:104898002146032200F020F905F12C0021460322CD
:1048A80000F01AF905F12E002146032200F014F950
:1048B80005F130002146032200F00EF905F132001F
:1048C8002146032200F008F905F1340021460322AD
:1048D80000F002F905F136002146032200F0FCF849
:1048E80005F138002146032200F0F6F805F13A00F8
:1048F8002146032200F0F0F805F13C00214603228E
:1049080000F0EAF805F13E002146032200F0E4F841
:1049180005F140002146032200F0DEF805F14200CF
:104928002146032200F0D8F805F14400214603226D
:1049380000F0D2F805F146002146032200F0CCF839
:1049480005F148002146032200F0C6F805F14A00A7
:104958002146032200F0C0F805F14C00214603224D
:1049680000F0BAF805F14E002146032200F0B4F831
:1049780002B0BDE80007F0BD80B56F46FEE7B0B5F0
:1049880002AF054608680C4640F4803008600868A5
:1049980040F040000860222063F31340486040F272
:1049A8006850C0F20C10086240F29510C0F2B200D4
:1049B8004862DC20C0F27A0088627D20C0F258008C
:1049C800C8624B20C0F2400008632F20C0F22E00BE
:1049D8004863886346F62010C86040F6A3108860D4
:1049E8004FF4C840C8614FF4C860886140F6C410ED
:1049F800C0F6804008613F204861086820F0030045
:104A080010430860086820F480300860C86F4021AF
:104A1800281D01F0E7FD10202C606864B0BDF0B5DA
:104A280003AF2DE9000FADF5057D0DF104098046B2
:104A38004FF40071484601F0D5FD44F2B82A0DF54F
:104A4800017BC2F2000A00246FF00F055646DAE92E
:104A58006001CDE9830158468294819600F0FAFB03
:104A68000DF5017C09EB050010350C369CE80E109D
:104A780001341030B5F5F87F80E80E10E7D101A9B0
:104A880040464FF4007201F004FE0DF5057DBDE8C7
:104A9800000FF0BD80B56F464FF0407181608268AD
:104AA80022F080728260C0F88810D0F8881021F057
:104AB8008071C0F8881080BD80B56F46B0F5007F62
:104AC80028BF4FF40070022898BF022000F00101AF
:104AD80001EB5000013880BD80B56F4603784078FF
:104AE800096801EB83014000C0B20323D1F868C014
:104AF800834002FA00F02CEA03031843886680BD5D
:104B080080B56F46006803E0816C002908BF80BD4E
:104B1800816C29B1816C00291CBF816C0029F3D1FB
:104B280080BD80B56F460068426D22F003021143D4
:104B3800416580BD80B56F4601460238C3B2042B7B
:104B480028BF042388B24FEA102C4FF40070DFE826
:104B580003F0030C04120500604680BDC80714BFAB
:104B68000CF5A0600CF5806080BD0121CCFA51F0F5
:104B780061F31F2080BD01200321CCFA50F061F3BE
:104B88001F2080BDB0B502AF86B040F2386C5FFA26
:104B980082FEC2F2200C5CF82E20B1FBF2F2131F49
:104BA8004AF6AB221C0A022C07D89BB253435D0C71
:104BB800ECB2202C01D200218FE05CF82E304C089A
:104BC800B4FBF3F3033B1C0A022C07D89BB25A43ED
:104BD800550CEAB2202A01D201217EE05CF82E2091
:104BE8008B08B3FBF2F2931E4AF6AB221C0A022C86
:104BF80007D89BB253435D0CECB2202C01D20221A2
:104C08006BE05CF82E30CC08B4FBF3F3023B1C0AD3
:104C1800022C07D89BB25A43550CEAB2202A01D27B
:104C280003215AE05CF82E200B09B3FBF2F2931E25
:104C38004AF6AB221C0A022C07D89BB253435D0CE0
:104C4800ECB2202C01D2042147E05CF82E304C094C
:104C5800B4FBF3F3023B1C0A022C07D89BB25A435D
:104C6800550CEAB2202A01D2052136E05CF82E2044
:104C78008B09B3FBF2F2931E4AF6AB221C0A022CF4
:104C880007D89BB253435D0CECB2202C01D206210D
:104C980023E05CF82E30C909B1FBF3F102390B0AA5
:104CA800022B9FBF89B251434D0CE9B298BF20290E
:104CB80012D301210020019140F2A451C2F2200137
:104CC8000490009140F2AC51039004200290C2F28B
:104CD8002001684600F0B8FC0721002201238281E8
:104CE80040F24442C2F2200252F82110EAB2022AEB
:104CF800144698BF02248472012A98BF1A46027289
:104D080088BF5308C3726B00DBB2032B98BF032321
:104D1800016019190132437204234900D2B253FACF
:104D280081F1914288BF0A46426006B0B0BDB0B575
:104D380002AF82B005680C46A80126D4E8013CD42D
:104D4800680452D4A80468D4E8047ED4280500F185
:104D58009480680500F1A880A80500F1BB80E805EB
:104D680000F1CE80A80700F1E080E80740F0F1806C
:104D7800002D019540F0068140F2CB512046C2F249
:104D88002001072200F005FF09E140F2E841204632
:104D9800C2F22001082200F0FCFE002840F0008149
:104DA800E80115D540F2BC512046C2F22001032289
:104DB80000F0EFFE002840F0F38040F2D251204688
:104DC800C2F220010F2200F0E4FE002840F0E88043
:104DD800680415D540F2BC512046C2F220010322D6
:104DE80000F0D7FE002840F0DB8040F2E151204679
:104DF800C2F220010A2200F0CCFE002840F0D08048
:104E0800A80415D540F2BC512046C2F22001032265
:104E180000F0BFFE002840F0C38040F2EB5120466E
:104E2800C2F220010F2200F0B4FE002840F0B88042
:104E3800E80415D540F2BC512046C2F220010322F5
:104E480000F0A7FE002840F0AB8040F2BF5120469A
:104E5800C2F220010A2200F09CFE002840F0A08047
:104E6800280515D540F2BC512046C2F22001032284
:104E780000F08FFE002840F0938040F2D041204699
:104E8800C2F22001102200F084FE002840F0888041
:104E9800680513D540F2BC512046C2F22001032216
:104EA80000F077FE00287BD140F2FA512046C2F28A
:104EB80020010D2200F06DFE002871D1A80513D540
:104EC80040F2BC512046C2F22001032200F061FEEC
:104ED800002865D140F207612046C2F220010D2268
:104EE80000F057FE00285BD1E80513D540F2BC510D
:104EF8002046C2F22001032200F04BFE00284FD1C9
:104F080040F214612046C2F220010A2200F041FE5C
:104F1800002845D1A80711D540F2BC512046C2F25D
:104F28002001032200F035FED0BB40F21E6120466E
:104F3800C2F220010C2200F02CFE88BBE80711D039
:104F480040F2BC512046C2F22001032200F021FEAB
:104F580030BB40F22A612046C2F220010D2200F047
:104F680018FEE8B948F2FC00CFF6FF40284001904F
:104F780019D040F2BC512046C2F22001032200F0B1
:104F880008FE68B940F2C9512046C2F22001022247
:104F980000F0FFFD20B901A8214601F089F810B101
:104FA800012002B0B0BD002002B0B0BD80B56F4690
:104FB80040F227629142006838BF0A46B2F548714C
:104FC80040F63E2238BF00215143C26822F01F023A
:104FD80042EA1141C16004E00168B1F1FF3FD8BF66
:104FE80080BD0168002905D4016800295CBF0168FB
:104FF8000029F1D580BDF0B503AF2DE9000B44F2CF
:10500800E043C4F21F031B68C3F30B2E4FEA135C83
:10501800E6451FBF0124C1F88841DBB24FF47A7816
:105028001FBF03FB08F9ACEB0E04D1F8906149F6F9
:1050380058651FBFCFF6FF7513FB085393FBF4F3B6
:10504800C2EA06021FBFC1F8902180E80A40C0F8F2
:105058000C90BDE8000B18BFF0BD40F28060C2F2B2
:10506800200001F012F880B56F4600684FF4005137
:105078004FF480524FF0400C4FF4803E00E0416105
:1050880003699B04FBD50369DB0401D44261F7E79C
:105098000369B3F1FF3FF3DC0369DB0306D403695B
:1050A8005B0648BF80BDC0F814C0E9E7C0F818E047
:1050B800E6E7F0B503AF2DE9000F87B08046A1F110
:1050C8001B001C2880F094801D4616469A4200F268
:1050D800A280002D00F0B28043F2006A8B46C0F235
:1050E8006E1A2A46A6FB0A0100234FF0000901F0B8
:1050F8001BFB0BFB0A004CF67F11CDF6411108444F
:1051080043F27F61C2F2BE6188425DD8D7F808C019
:105118004FF48032D8F800004FF480534FF4005118
:1051280000E08167046FE40307D5046FA404F8D492
:10513800046FE40403D44367F4E74267F2E79CFA98
:10514800ACF140F2EC72B1FA81F1C0F88060C0F8BD
:105158009050C2F2200252F8212040F2D876C0F8CE
:1051680070B0036FC2F2200656F8211023F4C01362
:105178001A430267D0F8702147F6FF73CFF67F73A2
:105188001A404FF4805342EAC15242EAC131C0F892
:1051980070114FF400514FF4803200E08367066FBE
:1051A800B6040BD5066FF604F8D4066FB6F1FF3FC8
:1051B800F5DC066FF60303D58267F0E74167EEE793
:1051C80007B0BDE8000FF0BD012040F2C8710290A1
:1051D80040F2C070C2F22000C2F220010190042007
:1051E800039001A8CDF81490CDF8109000F02CFA97
:1051F80001210020029140F22871C2F2200105909D
:1052080004900420019140F23071039001A8C2F289
:10521800200100F019FA01210020029140F2747176
:10522800C2F22001059004900420019140F27C71A3
:10523800039001A8C2F2200100F006FA40F2D460FF
:10524800C2F2200000F021FF80B56F46D0E90101CD
:10525800C87680BD0146406820283FBF896801EBB9
:1052680040104FF4805100223FBF425000F580505B
:10527800828082713FBFC2718260C26002613FBF9B
:105288008282C282826182833CBFC283704780B5BA
:105298006F4640F664022021C2F2200200F0F2F9C3
:1052A800014640681F289FBF896801EB401000F540
:1052B8008050704780B56F4640F664022021C2F2E4
:1052C800200200F0DFF90246406820283FBF9268BC
:1052D80002EB401041F20402815238BF704780B59A
:1052E8006F4640F664022021C2F2200200F0CAF99B
:1052F8000246406820283FBF926802EB401041F206
:105308001402815238BF704780B56F4640F6640278
:105318002021C2F2200200F0B5F902464068202898
:105328003FBF926802EB401041F20C02815038BF37
:10533800704780B56F4640F664022021C2F2200211
:1053480000F0A0F90246406820283FBF926802EBAF
:10535800401041F21802815038BF704780B56F463F
:1053680040F664022021C2F2200200F08BF90246C6
:10537800406820283FBF926802EB401041F20802C3
:10538800815038BF704780B56F4640F664022021CF
:10539800C2F2200200F076F90246406820283FBF9A
:1053A800926802EB401000F58050C28A3FBF02F4B9
:1053B80000426FF3DF310A44C2823FBFC28B02F45E
:1053C80000421144C18338BF704780B56F4640F62C
:1053D80064022021C2F2200200F054F980B56F4621
:1053E80086B0024640681F282ED80B78D26843B191
:1053F800012B0AD14B68497869B1042811D243F0CE
:10540800404342F8203006B080BD4FF0204342F8B8
:10541800203006B080BD43F0004342F8203006B08B
:1054280080BD01210020019140F6C001C2F2200197
:105438000490009140F6C801039004200290C2F243
:105448002001684600F000F940F674022021C2F2FB
:10545800200200F017F980B56F46D0E9010188767F
:1054680080BD80B56F46D0E90101496A00F01F0090
:1054780021FA00F000F0010080BD80B56F46D0E948
:105488000101C87780BD0246406820283FBF926866
:1054980002EB401041F21C02835A3FBF23F008037D
:1054A80061F3C3038352704780B56F4640F66402C8
:1054B8002021C2F2200200F0E5F8024640682028C8
:1054C8003FBF926802EB401041F21C02835A3FBF73
:1054D80023F0020361F341038352704780B56F469E
:1054E80040F664022021C2F2200200F0CBF880B519
:1054F8006F46D0E90101087780BD72B6704762B681
:105508007047012101EB50000138FDD17047EFF3DE
:1055180008807047EFF31180C0B2704780F311889C
:10552800704780B56F4600F000F880B56F4648F2C6
:1055380048100521C4F21F004BF2004301603821D6
:10554800C0F8F0114CF26C00C4F20A0041F6004EAB
:1055580001684EF6004CC0F2C443C0F64E6E21F00E
:10556800080101604CF28400C2F2601CC4F21B0006
:1055780050F8801C41F0080140F8801C08210160A7
:105588001A46013AFDD141601A46013AFDD101603F
:105598001A46013AFDD141601A46013AFDD101602F
:1055A8001A46013AFDD141607246013AFDD10160C7
:1055B8007246013AFDD141601A46013AFDD10160B7
:1055C8007246013AFDD141601A46013AFDD10160A7
:1055D8007246013AFDD141607246013AFDD101603F
:1055E8001A46013AFDD141601A46013AFDD10160DF
:1055F8001A46013AFDD141601A46013AFDD10160CF
:105608001A46013AFDD141606246013AFDD1B6E73A
:1056180080B56F468AB0CDE90001002006900120D0
:10562800039040F2F041059008A8049043F6BD703D
:10563800C0F20000C2F2200109906846089002A852
:105648000291114600F000F880B56F4684B0CDE9AC
:10565800010101A80122ADF80C20FFF762FF80B517
:105668006F4688B094460122019206AA0023CDE92C
:10567800060100920422684661460493039302924D
:10568800FFF7E2FF80B56F468CB0CDE9000100203E
:10569800069002200849029169460390059008A8DF
:1056A80004900648CDE9090111460B9001A808901D
:1056B80002A8FFF7C9FF00BFEC082020AF3E00009A
:1056C80080B56F468EB08DE80F00002040F60011BF
:1056D800089002200590C2F2200107900AA80690BF
:1056E80043F6AD70C0F20000D7F808C00D9002A8CC
:1056F8000C9043F6BD70C0F2000004910B90684610
:105708000A9004A86146FFF79FFF0000F0B503AFB9
:105718002DE9000F87B0FE681C461546814659B131
:10572800D9F808B01BF4001006EB50584FF02B00C6
:1057380008BF4FF4881004E0D9F808B006F1010852
:105748002D200690B86805905FEA0B2017D4002535
:10575800B9F80CA0D045C0F07F8020462B46D9E987
:10576800004500902946069A204600F001F90028D5
:105778003FD00124204607B0BDE8000FF0BD102C33
:1057880041D2002C44D004F0030CA2084FF00000D2
:1057980040D002F003026B1CCDE90364AA46A0EBDB
:1057A800820E6FF003041E19043496F9031096F95B
:1057B800065096F9052011F1410F96F90460C8BF0B
:1057C80001300EEB040116F1410FC8BF013012F190
:1057D800410FC8BF013015F1410FC8BF0130043176
:1057E800E1D1221D039E049C5546BCF1000F15D142
:1057F8002CE0EB6820460599324607B0BDE8000F5B
:10580800BDE8F04018472846214600F0D2F91DE0CF
:1058180000201BE00022BCF1000F17D0A95611F19F
:10582800410FC8BF0130BCF1010F0FD02A4492F9D3
:10583800011011F1410FC8BF0130BCF1020F05D0B2
:1058480092F9021011F1410FC8BF01308044B9F834
:105858000CA0D045BFF481AF5FEACB1004940ED4FE
:10586800CBF341700396AAEB08026FF35F5B002449
:10587800AA46DFE800F040023E0214463BE0D9E9C0
:1058880002102B46D9E900B401900020C9F6E07057
:1058980002910840214640F0005040F03000C9F81D
:1058A8000800049800905846069A00F061F800280D
:1058B80042D1AAEB08000396002586B2A8B2B042EE
:1058C80007D2226958463021904701350028F5D083
:1058D80032E0E36858460599039A984760BBDDE9CA
:1058E80001100024C9E90201204607B0BDE8000FF5
:1058F800F0BD90B24408D9E9005800260292A0B23F
:10590800B1B2814208D2D8F81020284659469047AB
:1059180001360028F3D00FE004984146009028464D
:10592800069A534600F024F830B9D8F80C302846C7
:105938000599039A984728B10124204607B0BDE885
:10594800000FF0BD02980026001B1FFA80F9B0B2C4
:1059580048454FF0000438BF0124BFF40BAFD8F816
:10596800102028465946904701360028EFD001E715
:10597800F0B503AF4DF8048DD7F808801C460E46E5
:10598800B2F5881F0AD03369114605469847014683
:10599800284619B101205DF8048BF0BD3CB1F368CD
:1059A800214642465DF8048BBDE8F04018470020C8
:1059B8005DF8048BF0BD0000F0B503AF2DE9000FD2
:1059C80081B0D0F808909346884619F0C05F00F07F
:1059D80078805FEAC9013BD4BBF1100F56D2BBF106
:1059E800000F00F0B3800BF0030C5FEA9B034FF04D
:1059F800000100F0AF8003F0030308F1010A6FF023
:105A08000305A1EB830E0AEB0504043594F9033072
:105A180094F9062094F9056013F1410F94F90440B4
:105A2800C8BF013114F1410FC8BF013116F1410F50
:105A3800C8BF013112F1410F0EEB0502C8BF013199
:105A48000432E0D12B1DBCF1000F40F0878029E023
:105A5800C18919B308EB0B034FF0000B0A46454602
:105A680007E0F02D2CBF351DF51CAE1B013AB344E1
:105A780016D09D4215D02E4615F9014BB4F1FF3FC3
:105A8800F3DCE5B2E02DECD2B51CEEE70446404667
:105A9800594600F08EF80146204603E04FF0000B0F
:105AA8000022891A828991420BD2531AC9F3417193
:105AB8006FF35F590026DFE801F011020F111E464F
:105AC8000CE0D0E900015A46CB68414601B0BDE878
:105AD800000FBDE8F040184799B24E08D0E9005AC7
:105AE80000240093B0B2A1B281420DD2DAF810209E
:105AF80028464946904701340028F3D0012630460D
:105B080001B0BDE8000FF0BDDAF80C302846414678
:105B18005A46984728B10126304601B0BDE8000F23
:105B2800F0BD00980024801B1FFA80F8A0B2404501
:105B38004FF0000638BF0126E1D2DAF810202846D7
:105B48004946904701340028F0D0D8E74FF0000BC1
:105B58000021A7E70023BCF1000FA3D018F9032008
:105B680012F1410FC8BF0131BCF1010F9AD0434473
:105B780093F9012012F1410FC8BF0131BCF1020FA6
:105B88003FF490AF93F9022012F1410FC8BF0131E1
:105B980088E780B56F46D0E90003DB68BDE8804040
:105BA800184780B56F4600F06BFB80B56F4600F074
:105BB80086FBF0B503AF2DE9000F82B081460330B4
:105BC80020F0030AAAEB0908414535D2002946D03E
:105BD80001F0030C89084FF0000000F03282A0EBBE
:105BE800810E09F101066FF003057319043593F965
:105BF800032093F9064093F9051012F1410F93F928
:105C08000430C8BF013013F1410FC8BF013011F192
:105C1800410FC8BF013014F1410F0EEB0501C8BF99
:105C280001300431E1D1291DBCF1000F40F00E8292
:105C380002B0BDE8000FF0BDA1EB080E5FEA9E0CB4
:105C4800C4D00EF00302CA4501D100204DE0A9EBF3
:105C58000A0010F1040F07D90020002529E00020D0
:105C680002B0BDE8000FF0BD09F1010B00206FF094
:105C780003060BEB060595F9034095F9063095F9EF
:105C8800051014F1410F95F90450C8BF013015F102
:105C9800410FC8BF013011F1410FC8BF013013F1E6
:105CA800410F06F10401C8BF013016F108050E4680
:105CB800DFD1CA4519D019F9051011F1410FC8BF34
:105CC8000130B8F1010F10D009EB050191F901304D
:105CD80013F1410FC8BF0130B8F1020F05D091F997
:105CE800021011F1410FC8BF013009EB080400236D
:105CF800C2B12EF00301214491F9006016F1410F61
:105D0800C8BF0123012A0DD091F9016016F1410F96
:105D1800C8BF0133022A05D091F9021011F1410FD1
:105D2800C8BF0133184412E04FF000083FFA88F268
:105D38003FFA98F31A44ACEB0B0C0AEB8B041BF0FC
:105D4800030102EB024200EB124040F04981BCF132
:105D5800000F3FF46DAFBCF1C00FE34628BF4FF012
:105D6800C00BA246BCF1040FDED36FF00F01012275
:105D780001EB8B01302902EB1112CDE9002A03D285
:105D88004FF000085446ABE022F003094FF000083A
:105D9800544694E80E04B9F10409A6696FEA010EA5
:105DA8004FEADE1545EA91116FEA020521F0FE314E
:105DB8004FEAD51545EA9212414422F0FE320A44D0
:105DC8006FEA03014FEAD11545EA931323F0FE3336
:105DD80025691A446FEA0A034FEAD313616943EA53
:105DE8009A13D4F8388023F0FE33D4F83CE01A44F0
:105DF8006FEA05034FEAD31343EA9513E56923F0E5
:105E0800FE331A446FEA01034FEAD31343EA9111B0
:105E180021F0FE31236A11446FEA06024FEAD212DA
:105E280042EA9612666A22F0FE3211446FEA0502CF
:105E38004FEAD21242EA9512A56A22F0FE321144C4
:105E48006FEA03024FEAD21242EA9312E36A22F09F
:105E5800FE3211446FEA06024FEAD21242EA961263
:105E6800266B22F0FE3211446FEA05024FEAD21285
:105E780042EA9512656B22F0FE3204F140041144A7
:105E88006FEA03024FEAD21242EA931222F0FE327C
:105E980011446FEA06024FEAD21242EA961222F041
:105EA800FE3211446FEA05024FEAD21242EA951215
:105EB80022F0FE3211446FEA08024FEAD21242EA97
:105EC800981222F0FE3211446FEA0E024FEAD21203
:105ED80042EA9E1222F0FE3202EB01087FF459AF2B
:105EE8000099DDF804A011F0030E3FF41FAF94E809
:105EF8004C00BEF1010FE5686FEA02014FEAD111CB
:105F080041EA92116FEA03024FEAD21221F0FE3100
:105F180042EA9312414422F0FE3211446FEA06022B
:105F28004FEAD21242EA961222F0FE3211446FEA88
:105F380005024FEAD21242EA951222F0FE3202EB33
:105F480001083FF4F3AE04F11005BEF1020F2ECDA7
:105F58006FEA01064FEAD61646EA91116FEA020681
:105F680021F0FE314FEAD61646EA9212414422F059
:105F7800FE3211446FEA03024FEAD21242EA931248
:105F880022F0FE3211446FEA05024FEAD21242EAC9
:105F9800951222F0FE3202EB01083FF4C7AE04F17D
:105FA80020064ECECD43ED0945EA9111D54321F0A7
:105FB800FE31ED0945EA9212414422F0FE321144C5
:105FC800DA43D20942EA931222F0FE321144F24334
:105FD800D20942EA961222F0FE3202EB0108A5E647
:105FE8000BF0FC0301295AF823206FEA02064FEA56
:105FF800D61646EA921222F0FE3215D00AEB830337
:1060080002295E686FEA06054FEAD51545EA961635
:1060180026F0FE36324407D09968CB43DB0943EAC1
:10602800911121F0FE310A443FFA82F13FFA92F2CF
:10603800114401EB014100EB114002B0BDE8000F33
:10604800F0BD0021BCF1000F3FF4F2AD19F90120B9
:1060580012F1410FC8BF0130BCF1010F3FF4E8ADA8
:10606800494491F9012012F1410FC8BF0130BCF138
:10607800020F3FF4DDAD91F9021011F1410FC8BFD5
:10608800013002B0BDE8000FF0BD80B56F4686B0A4
:106098000146002001220490019240F6F412039078
:1060A8000420C2F22002029068460092FFF7CCFA60
:1060B800B0B502AFA2B08C4601680DF1080E80237E
:1060C800812001F00F0202F157040A2A38BF02F1B9
:1060D80030040EEB000202F8024C0C0929D004F03F
:1060E8000F0404F157050A2C38BF04F130050C0AD7
:1060F80002F8035C1FD004F00F04043804F15705BC
:106108000A2C38BF04F130050C0B02F8045C15D0DA
:1061180004F00F04043B04F157050A2C38BF04F1BE
:106128003005090C02F8055CCBD1411E0346084630
:1061380005E0023803E0013B033800E0023BC3F10D
:10614800810140F610127044C2F22002CDE900012C
:10615800604601210223FFF7D9FA22B0B0BD80B50D
:106168006F460A4600680121BDE8804000F000B88B
:10617800F0B503AF2DE9000F89B040F6121E1546A1
:10618800B0F57A7FC2F2200E39D3CDE9041549F271
:106198007F65A7F1260B002342F2107841F27B4974
:1061A8004FF0640AC0F298050246039041F2597014
:1061B800AA42CDF2B710A2FB006C0BEB0300A3F1CF
:1061C80004034FEA5C3606FB18243246A1B24FEAB4
:1061D800910101FB09F14FEA514101FB1A443EF8D4
:1061E8001110C180A4B23EF814400481DED803AD7A
:1061F8000A3323CD092E06D83246A8B915E00A235A
:106208000646092EF8D9B2B2023B940841F27B4205
:1062180062436424520C02FB1466B6B23EF8164080
:10622800A7F12606F45200B142B102F00F00013B7B
:10623800A7F126020EEB40004078D054A7F12602C1
:10624800C3F10A001A440023CDE9002028460122A0
:10625800FFF75CFA09B0BDE8000FF0BD80B56F46E6
:10626800D0E90002D268BDE88040104780B56F468B
:106278000B46D0E900121846BDE88040FFF79CBBEA
:1062880080B56F468CB0CDE90001002040F6202192
:1062980006900220C2F220010390059008A80291FE
:1062A80001A9049043F6AF60C0F20000CDE90901EE
:1062B80011460B906846089002A8FFF7C5F980B50B
:1062C8006F468CB0CDE90001002040F654210690BD
:1062D8000220C2F220010390059008A8029101A9AA
:1062E800049043F6AF60C0F20000CDE90901114601
:1062F8000B906846089002A8FFF7A6F9F0B503AF1F
:106308002DE9000F8CB0102A1ED3434203F0030876
:1063180000EB0803984233D2A8F1010CB8F1000F42
:1063280006460C461AD00C46064614F801EBB8F19E
:10633800010F06F801EB11D04E78B8F1020F467044
:1063480008D18C1C861C09E084460CEB02039C4592
:1063580040D36CE08E78CC1C8670C61CBCF1030F51
:106368000ED3043C043E14F8045F06F8045F657815
:106378007570A578B570E578F570351D9D42F2D138
:10638800A2EB080E01EB08042EF0030214F003063A
:1063980003EB020C59D1634515D221460D6843F829
:1063A800045B63450FD24D6843F8045B63453EBF09
:1063B8008D6843F8045B634505D2CD68103143F816
:1063C800045B6345EAD3A1180EF003020CEB020349
:1063D8009C452CD2A2F1010E12F0030413D00A46F8
:1063E800654612F8016B012C05F8016B0DD04A784F
:1063F800022C8CF801201ED18A1C0CF10205BEF17A
:10640800030F05D213E065460A46BEF1030F0ED30B
:10641800111F2A1F11F8046F02F8046F4E78567086
:106428008E789670CE78D670161D9E42F2D10CB03A
:10643800BDE8000FF0BD8A780CF103058CF8022046
:10644800CA1CBEF1030FE3D2F1E74FF0000AC6F110
:10645800040B0BADCDF82CA005EB06095FEACB7554
:106468001EBF257889F800504FF0010AA51B089532
:10647800F50001955FEA8B7544BF34F80A5029F896
:106488000A501D1DDDF82CB06545019DC5F10009B8
:10649800CDF8009060D27342CDF820B001EB030A2A
:1064A80009F01801DDF80490834607910AEB080506
:1064B8000899CDF810A0D5F804A0079B21FA09F196
:1064C800CDF80CB0CDF820A00AFA03F30B430BEB80
:1064D80008018B464BF8083BE34540D2089B0695DC
:1064E800D5F808A023FA09F5079B05910AFA03F3E2
:1064F8002B434B6001F10C03634534D2069DED68D4
:1065080008952AFA09F50295DDE9075101FA05FA15
:106518000599029D1031614545EA0A05CBF80050FE
:1065280028D20699089DDDF810A0096925FA09FB0B
:10653800079D08910AF1100A01FA05F545EA0B01D1
:10654800DDF80CB019600BF1100B0BEB0803191DEB
:106558006145ABD3C24410E0DDF820A00FE005F19F
:10656800040A0B1D09E00699D346059B0831083338
:106578008A4604E0069901F10C0ADDF820B00021F2
:10658800012E8DF8281007F8261C05D10DF12808D2
:106598004FF0000900250AE09AF80550A7F12608EF
:1065A8009AF804108DF828104FEA05290225E60705
:1065B80001D1002509E00AF10401495D88F80010BD
:1065C80017F8265C9DF828102D0445EA0905019E58
:1065D8002943009D05F018052BFA06F6A94031431A
:1065E8001960F0E680B56F46042906D3A1F1040CC2
:1065F8000CF00C030C2B02D118E0024623E04FF0FC
:10660800000E024642F804EB1CF00C0F06D0042BD7
:10661800C0F804E005D10839083006E010466146A4
:1066280004E000220C3982600C300246BCF10C0FE9
:1066380009D3002302461039C2E90033C2E9023304
:1066480010320329F7D85018824221D2A1F1010C47
:1066580011F003030CD04FF0000E114601F801EBC6
:10666800012B0AD0022B82F801E003D1911C04E02F
:10667800114602E000219170D11CBCF1030F38BF14
:1066880080BD0439002241F8042F0B1D8342FAD142
:1066980080BD042A08D3B0B502AFA2F1040E0EF0F3
:1066A8000C040C2C06D121E00B46844660461946A2
:1066B800FFF724BE0B46844653F8045B1EF00C0F0C
:1066C8004CF8045B07D04B68042C436007D1083AA8
:1066D8000831083008E060461946724606E08B68C3
:1066E8000C3A83600C310C3084460B46BEF10C0F1B
:1066F80014D384460B461868103ACCF80000032AD5
:106708005868CCF804009868CCF80800D86803F1F9
:106718001003CCF80C000CF1100CECD8BDE8B0401C
:1067280060461946FFF7EABD10B584B002AC009484
:1067380000F004F8029A039B04B010BD80B56F46C0
:1067480086B0844602A8CDE9002362460B4600F0D5
:106758000DF8D7F808C0DDE90201BCF1000F1CBF35
:10676800DDE90432CCE9003206B080BDF0B503AFF4
:106778002DE9000BD7E902E8BEF1000F72D0B8F19D
:10678800000F6FD1002B00F0FC80734580F007816B
:10679800B3FA83F1BEFA8EF6711A01F1200608BF2A
:1067A8001F26C6F1200508FA06F10EFA06F82EFA99
:1067B80005F52943B6F1200506F01F0658BF0EFA65
:1067C80005F14FF0010505FA06FC4FF0000558BF2A
:1067D8004FF0000808E0224633464FEA181444EA0E
:1067E80001784FEA1C1C0909B2EB080463EB0106A7
:1067F800002E03D445EA0C0502D12DE014461E46AE
:106808005FEA51034FEA3802A21A66EB0303002B32
:1068180004D445EA5C05144602D11DE022463346FD
:106828004FEA980444EA8174141B63EB9106002E26
:1068380003D445EA9C0502D10EE014461E464FEAF1
:10684800D80242EA4172A21A66EBD103002BC2D4E5
:1068580045EADC051446C0D1B4FBFEF101FB1E4637
:10686800294392E0B2EB0E064FF0000173EB0806E5
:106878007CD3002B7AD0B3FA83F1B8FA88F6711A70
:1068880001F03F0601F01F01C6F1200408FA06F5E1
:106898000EFA06FC2EFA04F42C43B6F1200558BF74
:1068A8000EFA05F44FF0010505FA01F94FF0000161
:1068B80058BF4FF0000C08E032462B464FEA1C1632
:1068C80046EA047C4FEA19192409B2EB0C0673EB6B
:1068D800040507D4B6EB0E0241EA090175EB08027C
:1068E80002D23AE016461D465FEA54034FEA3C02DC
:1068F800B21A75EB030309D4B2EB0E0541EA59014C
:1069080073EB080516461D4602D226E032462B4692
:106918004FEA9C0545EA8475561B63EB9405002DE8
:1069280007D4B6EB0E0241EA990175EB080202D2D0
:1069380013E016461D464FEADC0242EA4472B21AD8
:1069480065EBD403002BB7D4B2EB0E0541EAD901AD
:1069580073EB080516461D46B0D24FF0000CC0E98F
:10696800001CC0E90265BDE8000BF0BD4FF0000C4B
:1069780016461D46C0E9001CC0E90265BDE8000BCB
:10698800F0BDB2FBFEF101FB1E264FF0000C002506
:10699800C0E9001CC0E90265BDE8000BF0BD0DD1DF
:1069A800B2FBF3F1002501FB13264FF0010CC0E9FF
:1069B800001CC0E90265BDE8000BF0BDB3FBFEFC9E
:1069C800BEF5803F0CFB1E351AD22904002541EA8A
:1069D8001241B1FBFEF303FB0EF14CEA134CC1EB81
:1069E8001241C2EA0141B1FBFEF202FB1E1642EA65
:1069F8000341C0E9001CC0E90265BDE8000BF0BD19
:106A0800B2EB0E0175EB080108D200211646C0E969
:106A1800001CC0E90265BDE8000BF0BD4FEAC87173
:106A280041EA5E034FEACE794FF00048002108E0C2
:106A3800224635464FEA191444EA03794FEA1818F2
:106A48001B09B2EB090465EB0306002E03D441EAE7
:106A5800080102D12DE014462E465FEA53054FEA9D
:106A68003902A21A66EB0505002D04D441EA580143
:106A7800144602D11DE0224635464FEA990444EAFD
:106A88008374141B65EB9306002E03D441EA980126
:106A980002D10EE014462E464FEAD90242EA43726A
:106AA800A21A66EBD305002DC2D441EAD8011446D8
:106AB800C0D1B4FBFEF2002502FB1E461143C0E91B
:106AC800001CC0E90265BDE8000BF0BD704604215A
:106AD800084203D1EFF3088000F004B8EFF309800F
:0C6AE80000F000B880B56F46FEE700002B
:106AF400444D41206368306578616D706C65735CEA
:106B04007372635C73696E655F746F6E652E727306
:106B14000700202019000000970000002A00000050
:106B24000000000004000000040000007F2A0000B0
:106B34005347544C3530303020766F6C756D65009A
:106B440007002020190000008D0000001B00000039
:106B54005347544C3530303020656E61626C6500AB
:106B640007002020190000008C000000180000001D
:106B7400537461636B206F766572666C6F77206106
:106B84006674657220616C6C6F636174696E6720F2
:106B94006578656375746F7273000000800020204F
:106BA4002900000007002020190000002800000030
:106BB400010000007465656E73792D617564696FF9
:106BC4005C7372635C626C6F636B5C706F6F6C2E72
:106BD40072730000C40020201E0000006500000045
:106BE40013000000C40020201E0000006E000000FE
:106BF40013000000C40020201E00000082000000DA
:106C0400120000007465656E73792D617564696F97
:106C14005C7372635C696F5C6F75747075745F69C3
:106C240032732E7273000000140120202100000032
:106C34009B0000002A000000140120202100000015
:106C44009800000029000000140120202100000009
:106C5400930000001A00000014012020210000000D
:106C6400940000001B0000001401202021000000FB
:106C7400D1000000220000001401202021000000A7
:106C8400E0000000220000000000240348066A0916
:106C94008C0CAB0FC812E215F9180B1C1A1F232217
:106CA400282526281F2B112EFB30DF33BA368C39CA
:106CB400563C173FCE417A441C47B4493F4CBF4E23
:106CC40033519B53F5554258825AB35CD75EEB60FF
:106CD400F162E864CF66A6686D6A236CC96D5E6F65
:106CE400E2705472B573047541766B778478897950
:106CF4007C7A5C7B297CE37C897D1D7E9C7E097F7C
:106D0400617FA67FD87FF57FFF7FF57FD87FA67F41
:106D1400617F097F9C7E1D7E897DE37C297C5C7B71
:106D24007C7A897984786B7741760475B57354726B
:106D3400E2705E6FC96D236C6D6AA668CF66E86405
:106D4400F162EB60D75EB35C825A4258F5559B53AF
:106D54003351BF4E3F4CB4491C477A44CE41173F90
:106D6400563C8C39BA36DF33FB30112E1F2B2628C4
:106D7400282523221A1F0B1CF918E215C812AB0F81
:106D84008C0C6A09480624030000DCFCB8F996F66A
:106D940074F355F038ED1EEA07E7F5E3E6E0DDDDD0
:106DA400D8DADAD7E1D4EFD105CF21CC46C974C6FD
:106DB400AAC3E9C032BE86BBE4B84CB6C1B341B184
:106DC400CDAE65AC0BAABEA77EA54DA329A1159F88
:106DD4000F9D189B31995A979395DD933792A29002
:106DE4001E8FAC8D4B8CFC8ABF8995887C877786F7
:106DF4008485A484D7831D837782E3816481F780AB
:106E04009F805A8028800B8001800B8028805A80C4
:106E14009F80F7806481E38177821D83D783A48474
:106E2400848577867C879588BF89FC8A4B8CAC8D5A
:106E34001E8FA2903792DD9393955A973199189BA0
:106E44000F9D159F29A14DA37EA5BEA70BAA65ACD6
:106E5400CDAE41B1C1B34CB6E4B886BB32BEE9C0D5
:106E6400AAC374C646C921CC05CFEFD1E1D4DAD781
:106E7400D8DADDDDE6E0F5E307E71EEA38ED55F0A4
:106E840074F396F6B8F9DCFC00007465656E7379EA
:106E94002D617564696F5C7372635C6E6F64657396
:106EA4005C73796E74685F73696E652E727300002B
:106EB4009A03202024000000500000001D00000060
:106EC400617373657274696F6E206661696C656461
:106ED4003A202154414B454E2E73776170287472C9
:106EE40075652C204F72646572696E673A3A536512
:106EF4007143737429433A5C55736572735C7461AE
:106F04006365725C4769744875625C7465656E7329
:106F140079342D72735C7372635C626F6172642E78
:106F240072730000050420202D000000B100000051
:106F34000500000000000000010000000200000045
:106F4400030000000400000005000000060000002B
:106F540007000000696E646578206F7574206F66A1
:106F640020626F756E64733A20746865206C656E78
:106F74002069732001080104050304080409040AB4
:106F8400040B010D000F020D0306010F0606050F89
:106F9400050E06000106010A000C010B000D00009D
:106FA40072616E676520656E6420696E6465782021
:106FB400050C000E0006010C03010303050D060772
:106FC4004152424954524154494F4E5F4C4F5354DD
:106FD400020302040205060C4255535F42555359FD
:106FE4000100000000000000010001010102010392
:106FF4000106010A000C010B000D010D000F020D2A
:10700400030606000503050F050E02030205010031
:107014000101010201030303010C000E000606072F
:10702400050C050D030104080409040A040B0501F9
:10703400030007060108010406060509050A050BF5
:10704400433A5C55736572735C74616365725C4743
:1070540069744875625C696D7872742D68616C5CE2
:107064007372635C636F6D6D6F6E5C6C70693263B9
:107074002E7273436F756C64206E6F7420636F6D32
:107084007075746520434C4B4849202F20434C4B6A
:107094004C4F0000830520201F00000050052020D5
:1070A400330000004904000009000000207C204651
:1070B40049464F5F4552524F52307828656D70747F
:1070C4007929434F4E54524F4C4C45525F425553CD
:1070D40059444154415F4D4154434850494E5F4CDB
:1070E4004F575F54494D454F55544E41434B5F44B0
:1070F4004554454354454453544F505F44455445C7
:1071040043544544454E445F5041434B45545245D6
:1071140043454956455F444154415452414E534DB1
:1071240049545F4441544100A0860100801A06007E
:1071340040420F00433A5C55736572735C7461633B
:1071440065725C4769744875625C696D7872742D08
:1071540068616C5C7372635C636869705C647269B7
:10716400766572735C74656D706D6F6E2E727300EC
:10717400440620203B000000AE0000001600000082
:10718400433A5C55736572735C74616365725C4702
:1071940069744875625C696D7872742D68616C5CA1
:1071A4007372635C636869705C6472697665727338
:1071B4005C63636D5F313078785C616E616C6F67BE
:1071C4002E72730090062020430000006600000029
:1071D4000F000000417564696F20504C4C206469B5
:1071E40076696465722073656C656374696F6E207B
:1071F4006D75737420626520696E2072616E6765B7
:107204002066726F6D20323720746F203534206908
:107214006E636C7573697665E40620204400000093
:1072240090062020430000007700000009000000C1
:10723400504C4C207265717569726573206E756D62
:10724400657261746F72206265206C65737320745B
:1072540068616E207468652064656E6F6D696E6127
:10726400746F720040072020330000009006202035
:10727400430000007B000000090000004D617869B4
:107284006D756D20504C4C34206F7574707574207E
:1072940072616E67652069732066726F6D20363582
:1072A400304D487A20746F20312E3347487A0000DD
:1072B4008C072020320000009006202043000000AC
:1072C4008000000009000000000000000000000031
:1072D4000100000001000000010000000000100097
:1072E400000008000000100000000800000000007A
:1072F400433A5C55736572735C74616365725C2EAA
:10730400636172676F5C72656769737472795C73C9
:1073140072635C696E6465782E6372617465732E42
:10732400696F2D31393439636638633662356235B5
:107334003537665C696D7872742D646D612D302EFD
:10734400312E315C7372635C6368616E6E656C2EA2
:107354007273000000082020620000006700000033
:107364000A00000000082020620000002001000044
:107374001600000052657175657374656420444D90
:107384004120706572696F6469632074726967670C
:107394006572696E67206F6E20616E20756E7375FD
:1073A40070706F72746564206368616E6E656C2EB4
:1073B400840820203C000000000820206200000017
:1073C40026010000150000002062757420746865B1
:1073D40020696E64657820697320000064042020AD
:1073E40020000000D8082020120000003A200000ED
:1073F4000100000000000000FC0820200200000042
:10740400307830303031303230333034303530361B
:107414003037303830393130313131323133313441
:107424003135313631373138313932303231323227
:10743400323332343235323632373238323933300D
:1074440033313332333333343335333633373338FC
:1074540033393430343134323433343434353436EB
:1074640034373438343935303531353235333534D1
:1074740035353536353735383539363036313632B7
:10748400363336343635363636373638363937309D
:10749400373137323733373437353736373737388C
:1074A400373938303831383238333834383538367B
:1074B4003837383838393930393139323933393461
:1074C40039353936393739383939617474656D70FD
:1074D4007420746F20646976696465206279207A07
:1074E40065726F00DA09202019000000206F75749E
:1074F400206F662072616E676520666F7220736C00
:10750400696365206F66206C656E6774682000008F
:10751400B004202010000000FC09202022000000FC
:10752400736C69636520696E646578207374617235
:107534007473206174202062757420656E647320F6
:1075440061742000300A202016000000460A202022
:047554000D00000026
:107558000000000000000000000000000000000023
:107568000000000000000000000000000000000013
:107578000000000000000000000000000000000003
:1075880000000000000000000000000000000000F3
:1075980000000000000000000000000000000000E3
:1075A80000000000000000000000000000000000D3
:1075B80000000000000000000000000000000000C3
:1075C80000000000000000000000000000000000B3
:1075D80000000000000000000000000000000000A3
:1075E8000000000000000000000000000000000093
:1075F8000000000000000000000000000000000083
:107608000000000000000000000000000000000072
:107618000000000000000000000000000000000062
:107628000000000000000000000000000000000052
:107638000000000000000000000000000000000042
:107648000000000000000000000000000000000032
:107658000000000000000000000000000000000022
:107668000000000000000000000000000000000012
:107678000000000000000000000000000000000002
:1076880000000000000000000000000000000000F2
:1076980000000000000000000000000000000000E2
:1076A80000000000000000000000000000000000D2
:1076B80000000000000000000000000000000000C2
:1076C80000000000000000000000000000000000B2
:0876D80000800E4000C00E40CE
:040000056000103156
:00000001FF
